{
  "contractName": "Crowdfunding",
  "abi": [
    {
      "inputs": [
        {
          "internalType": "string",
          "name": "campaignName",
          "type": "string"
        },
        {
          "internalType": "uint256",
          "name": "targetAmountEth",
          "type": "uint256"
        },
        {
          "internalType": "uint256",
          "name": "durationInMin",
          "type": "uint256"
        },
        {
          "internalType": "address payable",
          "name": "beneficiaryAddress",
          "type": "address"
        }
      ],
      "stateMutability": "nonpayable",
      "type": "constructor"
    },
    {
      "anonymous": false,
      "inputs": [
        {
          "indexed": false,
          "internalType": "address",
          "name": "addr",
          "type": "address"
        },
        {
          "indexed": false,
          "internalType": "uint256",
          "name": "totalCollected",
          "type": "uint256"
        },
        {
          "indexed": false,
          "internalType": "bool",
          "name": "succeeded",
          "type": "bool"
        }
      ],
      "name": "CampaignFinished",
      "type": "event"
    },
    {
      "anonymous": false,
      "inputs": [
        {
          "indexed": true,
          "internalType": "address",
          "name": "previousOwner",
          "type": "address"
        },
        {
          "indexed": true,
          "internalType": "address",
          "name": "newOwner",
          "type": "address"
        }
      ],
      "name": "OwnershipTransferred",
      "type": "event"
    },
    {
      "inputs": [
        {
          "internalType": "address",
          "name": "",
          "type": "address"
        }
      ],
      "name": "amounts",
      "outputs": [
        {
          "internalType": "uint256",
          "name": "",
          "type": "uint256"
        }
      ],
      "stateMutability": "view",
      "type": "function",
      "constant": true
    },
    {
      "inputs": [],
      "name": "beneficiary",
      "outputs": [
        {
          "internalType": "address payable",
          "name": "",
          "type": "address"
        }
      ],
      "stateMutability": "view",
      "type": "function",
      "constant": true
    },
    {
      "inputs": [],
      "name": "collected",
      "outputs": [
        {
          "internalType": "bool",
          "name": "",
          "type": "bool"
        }
      ],
      "stateMutability": "view",
      "type": "function",
      "constant": true
    },
    {
      "inputs": [],
      "name": "fundingDeadline",
      "outputs": [
        {
          "internalType": "uint256",
          "name": "",
          "type": "uint256"
        }
      ],
      "stateMutability": "view",
      "type": "function",
      "constant": true
    },
    {
      "inputs": [],
      "name": "name",
      "outputs": [
        {
          "internalType": "string",
          "name": "",
          "type": "string"
        }
      ],
      "stateMutability": "view",
      "type": "function",
      "constant": true
    },
    {
      "inputs": [],
      "name": "owner",
      "outputs": [
        {
          "internalType": "address",
          "name": "",
          "type": "address"
        }
      ],
      "stateMutability": "view",
      "type": "function",
      "constant": true
    },
    {
      "inputs": [],
      "name": "renounceOwnership",
      "outputs": [],
      "stateMutability": "nonpayable",
      "type": "function"
    },
    {
      "inputs": [],
      "name": "state",
      "outputs": [
        {
          "internalType": "enum Crowdfunding.State",
          "name": "",
          "type": "uint8"
        }
      ],
      "stateMutability": "view",
      "type": "function",
      "constant": true
    },
    {
      "inputs": [],
      "name": "targetAmount",
      "outputs": [
        {
          "internalType": "uint256",
          "name": "",
          "type": "uint256"
        }
      ],
      "stateMutability": "view",
      "type": "function",
      "constant": true
    },
    {
      "inputs": [
        {
          "internalType": "address",
          "name": "newOwner",
          "type": "address"
        }
      ],
      "name": "transferOwnership",
      "outputs": [],
      "stateMutability": "nonpayable",
      "type": "function"
    },
    {
      "stateMutability": "payable",
      "type": "receive",
      "payable": true
    },
    {
      "inputs": [],
      "name": "finishCrowdfunding",
      "outputs": [],
      "stateMutability": "nonpayable",
      "type": "function"
    },
    {
      "inputs": [],
      "name": "cancel",
      "outputs": [],
      "stateMutability": "nonpayable",
      "type": "function"
    },
    {
      "inputs": [],
      "name": "collect",
      "outputs": [],
      "stateMutability": "nonpayable",
      "type": "function"
    },
    {
      "inputs": [],
      "name": "withdraw",
      "outputs": [],
      "stateMutability": "nonpayable",
      "type": "function"
    },
    {
      "inputs": [],
      "name": "totalCollected",
      "outputs": [
        {
          "internalType": "uint256",
          "name": "",
          "type": "uint256"
        }
      ],
      "stateMutability": "view",
      "type": "function",
      "constant": true
    }
  ],
  "bytecode": "0x60806040523480156200001157600080fd5b5060405162001f7038038062001f70833981810160405281019062000037919062000753565b620000576200004b6200024260201b60201c565b6200024a60201b60201c565b83600190805190602001906200006f92919062000466565b508273__Utils_________________________________63d8916bb990916040518263ffffffff1660e01b8152600401620000ab9190620007f5565b602060405180830381865af4158015620000c9573d6000803e3d6000fd5b505050506040513d601f19601f82011682018060405250810190620000ef919062000812565b6002819055508173__Utils_________________________________63529b380f90916040518263ffffffff1660e01b8152600401620001309190620007f5565b602060405180830381865af41580156200014e573d6000803e3d6000fd5b505050506040513d601f19601f8201168201806040525081019062000174919062000812565b620001846200030e60201b60201c565b62000190919062000873565b60038190555080600460006101000a81548173ffffffffffffffffffffffffffffffffffffffff021916908373ffffffffffffffffffffffffffffffffffffffff1602179055506000600460146101000a81548160ff021916908360038111156200020057620001ff620008d0565b5b021790555062000238600460009054906101000a900473ffffffffffffffffffffffffffffffffffffffff166200031660201b60201c565b5050505062000a7e565b600033905090565b60008060009054906101000a900473ffffffffffffffffffffffffffffffffffffffff169050816000806101000a81548173ffffffffffffffffffffffffffffffffffffffff021916908373ffffffffffffffffffffffffffffffffffffffff1602179055508173ffffffffffffffffffffffffffffffffffffffff168173ffffffffffffffffffffffffffffffffffffffff167f8be0079c531659141344cd1fd0a4f28419497f9722a3daafe3b4186f6b6457e060405160405180910390a35050565b600042905090565b62000326620003ac60201b60201c565b600073ffffffffffffffffffffffffffffffffffffffff168173ffffffffffffffffffffffffffffffffffffffff160362000398576040517f08c379a00000000000000000000000000000000000000000000000000000000081526004016200038f9062000986565b60405180910390fd5b620003a9816200024a60201b60201c565b50565b620003bc6200024260201b60201c565b73ffffffffffffffffffffffffffffffffffffffff16620003e26200043d60201b60201c565b73ffffffffffffffffffffffffffffffffffffffff16146200043b576040517f08c379a00000000000000000000000000000000000000000000000000000000081526004016200043290620009f8565b60405180910390fd5b565b60008060009054906101000a900473ffffffffffffffffffffffffffffffffffffffff16905090565b828054620004749062000a49565b90600052602060002090601f016020900481019282620004985760008555620004e4565b82601f10620004b357805160ff1916838001178555620004e4565b82800160010185558215620004e4579182015b82811115620004e3578251825591602001919060010190620004c6565b5b509050620004f39190620004f7565b5090565b5b8082111562000512576000816000905550600101620004f8565b5090565b6000604051905090565b600080fd5b600080fd5b600080fd5b600080fd5b6000601f19601f8301169050919050565b7f4e487b7100000000000000000000000000000000000000000000000000000000600052604160045260246000fd5b6200057f8262000534565b810181811067ffffffffffffffff82111715620005a157620005a062000545565b5b80604052505050565b6000620005b662000516565b9050620005c4828262000574565b919050565b600067ffffffffffffffff821115620005e757620005e662000545565b5b620005f28262000534565b9050602081019050919050565b60005b838110156200061f57808201518184015260208101905062000602565b838111156200062f576000848401525b50505050565b60006200064c6200064684620005c9565b620005aa565b9050828152602081018484840111156200066b576200066a6200052f565b5b62000678848285620005ff565b509392505050565b600082601f8301126200069857620006976200052a565b5b8151620006aa84826020860162000635565b91505092915050565b6000819050919050565b620006c881620006b3565b8114620006d457600080fd5b50565b600081519050620006e881620006bd565b92915050565b600073ffffffffffffffffffffffffffffffffffffffff82169050919050565b60006200071b82620006ee565b9050919050565b6200072d816200070e565b81146200073957600080fd5b50565b6000815190506200074d8162000722565b92915050565b6000806000806080858703121562000770576200076f62000520565b5b600085015167ffffffffffffffff81111562000791576200079062000525565b5b6200079f8782880162000680565b9450506020620007b287828801620006d7565b9350506040620007c587828801620006d7565b9250506060620007d8878288016200073c565b91505092959194509250565b620007ef81620006b3565b82525050565b60006020820190506200080c6000830184620007e4565b92915050565b6000602082840312156200082b576200082a62000520565b5b60006200083b84828501620006d7565b91505092915050565b7f4e487b7100000000000000000000000000000000000000000000000000000000600052601160045260246000fd5b60006200088082620006b3565b91506200088d83620006b3565b9250827fffffffffffffffffffffffffffffffffffffffffffffffffffffffffffffffff03821115620008c557620008c462000844565b5b828201905092915050565b7f4e487b7100000000000000000000000000000000000000000000000000000000600052602160045260246000fd5b600082825260208201905092915050565b7f4f776e61626c653a206e6577206f776e657220697320746865207a65726f206160008201527f6464726573730000000000000000000000000000000000000000000000000000602082015250565b60006200096e602683620008ff565b91506200097b8262000910565b604082019050919050565b60006020820190508181036000830152620009a1816200095f565b9050919050565b7f4f776e61626c653a2063616c6c6572206973206e6f7420746865206f776e6572600082015250565b6000620009e0602083620008ff565b9150620009ed82620009a8565b602082019050919050565b6000602082019050818103600083015262000a1381620009d1565b9050919050565b7f4e487b7100000000000000000000000000000000000000000000000000000000600052602260045260246000fd5b6000600282049050600182168062000a6257607f821691505b60208210810362000a785762000a7762000a1a565b5b50919050565b6114e28062000a8e6000396000f3fe6080604052600436106100ec5760003560e01c80638da5cb5b1161008a578063e29eb83611610059578063e29eb836146103e7578063e522538114610412578063ea8a1af014610429578063f2fde38b1461044057610233565b80638da5cb5b1461034f578063953b8fb81461037a578063a84669de146103a5578063c19d93fb146103bc57610233565b806355a3b2c1116100c657806355a3b2c1146102a5578063715018a6146102e2578063796b23bb146102f957806384bcefd41461032457610233565b806306fdde031461023857806338af3eed146102635780633ccfd60b1461028e57610233565b3661023357600080600381111561010657610105610d57565b5b600460149054906101000a900460ff16600381111561012857610127610d57565b5b14610168576040517f08c379a000000000000000000000000000000000000000000000000000000000815260040161015f90610de3565b60405180910390fd5b610170610469565b6101af576040517f08c379a00000000000000000000000000000000000000000000000000000000081526004016101a690610e75565b60405180910390fd5b34600560003373ffffffffffffffffffffffffffffffffffffffff1673ffffffffffffffffffffffffffffffffffffffff16815260200190815260200160002060008282546101fe9190610ece565b9250508190555060025461021061047c565b10610231576001600660006101000a81548160ff0219169083151502179055505b005b600080fd5b34801561024457600080fd5b5061024d610484565b60405161025a9190610fac565b60405180910390f35b34801561026f57600080fd5b50610278610512565b604051610285919061100f565b60405180910390f35b34801561029a57600080fd5b506102a3610538565b005b3480156102b157600080fd5b506102cc60048036038101906102c7919061106d565b61073c565b6040516102d991906110a9565b60405180910390f35b3480156102ee57600080fd5b506102f7610754565b005b34801561030557600080fd5b5061030e610768565b60405161031b91906110a9565b60405180910390f35b34801561033057600080fd5b5061033961076e565b60405161034691906110df565b60405180910390f35b34801561035b57600080fd5b50610364610781565b6040516103719190611109565b60405180910390f35b34801561038657600080fd5b5061038f6107aa565b60405161039c91906110a9565b60405180910390f35b3480156103b157600080fd5b506103ba6107b0565b005b3480156103c857600080fd5b506103d1610932565b6040516103de919061116c565b60405180910390f35b3480156103f357600080fd5b506103fc61047c565b60405161040991906110a9565b60405180910390f35b34801561041e57600080fd5b50610427610945565b005b34801561043557600080fd5b5061043e610a7e565b005b34801561044c57600080fd5b506104676004803603810190610462919061106d565b610b72565b005b6000600354610476610bf5565b10905090565b600047905090565b60018054610491906111b6565b80601f01602080910402602001604051908101604052809291908181526020018280546104bd906111b6565b801561050a5780601f106104df5761010080835404028352916020019161050a565b820191906000526020600020905b8154815290600101906020018083116104ed57829003601f168201915b505050505081565b600460009054906101000a900473ffffffffffffffffffffffffffffffffffffffff1681565b600180600381111561054d5761054c610d57565b5b600460149054906101000a900460ff16600381111561056f5761056e610d57565b5b146105af576040517f08c379a00000000000000000000000000000000000000000000000000000000081526004016105a690610de3565b60405180910390fd5b6000600560003373ffffffffffffffffffffffffffffffffffffffff1673ffffffffffffffffffffffffffffffffffffffff1681526020019081526020016000205411610631576040517f08c379a000000000000000000000000000000000000000000000000000000000815260040161062890611233565b60405180910390fd5b6000600560003373ffffffffffffffffffffffffffffffffffffffff1673ffffffffffffffffffffffffffffffffffffffff1681526020019081526020016000205490506000600560003373ffffffffffffffffffffffffffffffffffffffff1673ffffffffffffffffffffffffffffffffffffffff168152602001908152602001600020819055503373ffffffffffffffffffffffffffffffffffffffff166108fc829081150290604051600060405180830381858888f193505050506107385780600560003373ffffffffffffffffffffffffffffffffffffffff1673ffffffffffffffffffffffffffffffffffffffff168152602001908152602001600020819055505b5050565b60056020528060005260406000206000915090505481565b61075c610bfd565b6107666000610c7b565b565b60035481565b600660009054906101000a900460ff1681565b60008060009054906101000a900473ffffffffffffffffffffffffffffffffffffffff16905090565b60025481565b60008060038111156107c5576107c4610d57565b5b600460149054906101000a900460ff1660038111156107e7576107e6610d57565b5b14610827576040517f08c379a000000000000000000000000000000000000000000000000000000000815260040161081e90610de3565b60405180910390fd5b61082f610d3f565b61086e576040517f08c379a0000000000000000000000000000000000000000000000000000000008152600401610865906112c5565b60405180910390fd5b600660009054906101000a900460ff166108b2576001600460146101000a81548160ff021916908360038111156108a8576108a7610d57565b5b02179055506108de565b6002600460146101000a81548160ff021916908360038111156108d8576108d7610d57565b5b02179055505b7f6fa7e87ebbd87ed4f1c40bba63144f68fd2bb022fb748ab3b61b5411c39bd4743061090861047c565b600660009054906101000a900460ff16604051610927939291906112e5565b60405180910390a150565b600460149054906101000a900460ff1681565b600280600381111561095a57610959610d57565b5b600460149054906101000a900460ff16600381111561097c5761097b610d57565b5b146109bc576040517f08c379a00000000000000000000000000000000000000000000000000000000081526004016109b390610de3565b60405180910390fd5b600460009054906101000a900473ffffffffffffffffffffffffffffffffffffffff1673ffffffffffffffffffffffffffffffffffffffff166108fc610a0061047c565b9081150290604051600060405180830381858888f1935050505015610a4f576003600460146101000a81548160ff02191690836003811115610a4557610a44610d57565b5b0217905550610a7b565b6001600460146101000a81548160ff02191690836003811115610a7557610a74610d57565b5b02179055505b50565b610a86610bfd565b6000806003811115610a9b57610a9a610d57565b5b600460149054906101000a900460ff166003811115610abd57610abc610d57565b5b14610afd576040517f08c379a0000000000000000000000000000000000000000000000000000000008152600401610af490610de3565b60405180910390fd5b610b05610469565b610b44576040517f08c379a0000000000000000000000000000000000000000000000000000000008152600401610b3b9061138e565b60405180910390fd5b6001600460146101000a81548160ff02191690836003811115610b6a57610b69610d57565b5b021790555050565b610b7a610bfd565b600073ffffffffffffffffffffffffffffffffffffffff168173ffffffffffffffffffffffffffffffffffffffff1603610be9576040517f08c379a0000000000000000000000000000000000000000000000000000000008152600401610be090611420565b60405180910390fd5b610bf281610c7b565b50565b600042905090565b610c05610d4f565b73ffffffffffffffffffffffffffffffffffffffff16610c23610781565b73ffffffffffffffffffffffffffffffffffffffff1614610c79576040517f08c379a0000000000000000000000000000000000000000000000000000000008152600401610c709061148c565b60405180910390fd5b565b60008060009054906101000a900473ffffffffffffffffffffffffffffffffffffffff169050816000806101000a81548173ffffffffffffffffffffffffffffffffffffffff021916908373ffffffffffffffffffffffffffffffffffffffff1602179055508173ffffffffffffffffffffffffffffffffffffffff168173ffffffffffffffffffffffffffffffffffffffff167f8be0079c531659141344cd1fd0a4f28419497f9722a3daafe3b4186f6b6457e060405160405180910390a35050565b6000610d49610469565b15905090565b600033905090565b7f4e487b7100000000000000000000000000000000000000000000000000000000600052602160045260246000fd5b600082825260208201905092915050565b7f496e76616c696420737461746500000000000000000000000000000000000000600082015250565b6000610dcd600d83610d86565b9150610dd882610d97565b602082019050919050565b60006020820190508181036000830152610dfc81610dc0565b9050919050565b7f43616e6e6f7420636f6e74726962757465206166746572206120646561646c6960008201527f6e65000000000000000000000000000000000000000000000000000000000000602082015250565b6000610e5f602283610d86565b9150610e6a82610e03565b604082019050919050565b60006020820190508181036000830152610e8e81610e52565b9050919050565b6000819050919050565b7f4e487b7100000000000000000000000000000000000000000000000000000000600052601160045260246000fd5b6000610ed982610e95565b9150610ee483610e95565b9250827fffffffffffffffffffffffffffffffffffffffffffffffffffffffffffffffff03821115610f1957610f18610e9f565b5b828201905092915050565b600081519050919050565b60005b83811015610f4d578082015181840152602081019050610f32565b83811115610f5c576000848401525b50505050565b6000601f19601f8301169050919050565b6000610f7e82610f24565b610f888185610d86565b9350610f98818560208601610f2f565b610fa181610f62565b840191505092915050565b60006020820190508181036000830152610fc68184610f73565b905092915050565b600073ffffffffffffffffffffffffffffffffffffffff82169050919050565b6000610ff982610fce565b9050919050565b61100981610fee565b82525050565b60006020820190506110246000830184611000565b92915050565b600080fd5b600061103a82610fce565b9050919050565b61104a8161102f565b811461105557600080fd5b50565b60008135905061106781611041565b92915050565b6000602082840312156110835761108261102a565b5b600061109184828501611058565b91505092915050565b6110a381610e95565b82525050565b60006020820190506110be600083018461109a565b92915050565b60008115159050919050565b6110d9816110c4565b82525050565b60006020820190506110f460008301846110d0565b92915050565b6111038161102f565b82525050565b600060208201905061111e60008301846110fa565b92915050565b6004811061113557611134610d57565b5b50565b600081905061114682611124565b919050565b600061115682611138565b9050919050565b6111668161114b565b82525050565b6000602082019050611181600083018461115d565b92915050565b7f4e487b7100000000000000000000000000000000000000000000000000000000600052602260045260246000fd5b600060028204905060018216806111ce57607f821691505b6020821081036111e1576111e0611187565b5b50919050565b7f4e6f7468696e672077617320636f6e7472696275746564000000000000000000600082015250565b600061121d601783610d86565b9150611228826111e7565b602082019050919050565b6000602082019050818103600083015261124c81611210565b9050919050565b7f43616e6e6f742066696e6973682063616d706169676e206265666f726520612060008201527f646561646c696e65000000000000000000000000000000000000000000000000602082015250565b60006112af602883610d86565b91506112ba82611253565b604082019050919050565b600060208201905081810360008301526112de816112a2565b9050919050565b60006060820190506112fa60008301866110fa565b611307602083018561109a565b61131460408301846110d0565b949350505050565b7f43616e6e6f742063616e63656c2063616d706169676e2061667465722061206460008201527f6561646c696e6500000000000000000000000000000000000000000000000000602082015250565b6000611378602783610d86565b91506113838261131c565b604082019050919050565b600060208201905081810360008301526113a78161136b565b9050919050565b7f4f776e61626c653a206e6577206f776e657220697320746865207a65726f206160008201527f6464726573730000000000000000000000000000000000000000000000000000602082015250565b600061140a602683610d86565b9150611415826113ae565b604082019050919050565b60006020820190508181036000830152611439816113fd565b9050919050565b7f4f776e61626c653a2063616c6c6572206973206e6f7420746865206f776e6572600082015250565b6000611476602083610d86565b915061148182611440565b602082019050919050565b600060208201905081810360008301526114a581611469565b905091905056fea2646970667358221220bd1af70d3a5d152dd6e1d81b913af4c6429b5a3ef73b3ae67ba216efd451b2f864736f6c634300080e0033",
  "immutableReferences": {},
  "source": "// SPDX-License-Identifier: GPL-3.0\n\npragma solidity ^0.8.0;\n\nimport \"@openzeppelin/contracts/access/Ownable.sol\";\nimport \"./Utils.sol\";\n\ncontract Crowdfunding is Ownable {\n\n    using Utils for uint;\n\n    enum State { Ongoing, Failed, Succeeded, PaidOut }\n\n    event CampaignFinished(\n        address addr,\n        uint totalCollected,\n        bool succeeded\n    );\n\n    string public name;\n    uint public targetAmount;\n    uint public fundingDeadline;\n    address payable public beneficiary;\n    State public state;\n    mapping(address => uint) public amounts;\n    bool public collected;\n\n    modifier inState(State expectedState) {\n        require(state == expectedState, \"Invalid state\");\n        _;\n    }\n\n    constructor(\n        string memory campaignName,\n        uint targetAmountEth,\n        uint durationInMin,\n        address payable beneficiaryAddress\n    ) {\n        name = campaignName;\n        targetAmount = targetAmountEth.etherToWei();\n        fundingDeadline = currentTime() + durationInMin.minutesToSeconds();\n        beneficiary = beneficiaryAddress;\n        state = State.Ongoing;\n\n        transferOwnership(beneficiary);\n    }\n\n    receive() external payable inState(State.Ongoing) {\n        require(beforeDeadline(), \"Cannot contribute after a deadline\");\n\n        amounts[msg.sender] += msg.value;\n\n        if (totalCollected() >= targetAmount) {\n            collected = true;\n        }\n    }\n\n    function finishCrowdfunding() public inState(State.Ongoing) {\n        require(afterDeadline(), \"Cannot finish campaign before a deadline\");\n\n        if (!collected) {\n            state = State.Failed;\n        } else {\n            state = State.Succeeded;\n        }\n\n        emit CampaignFinished(address(this), totalCollected(), collected);\n    }\n\n    function cancel() public onlyOwner inState(State.Ongoing) {\n        require(beforeDeadline(), \"Cannot cancel campaign after a deadline\");\n\n        state = State.Failed;\n        // emit CampaignFinished(address(this), totalCollected(), false);\n    }\n\n    function collect() public inState(State.Succeeded) {\n        if (beneficiary.send(totalCollected())) {\n            state = State.PaidOut;\n        } else {\n            state = State.Failed;\n        }\n    }\n\n    function withdraw() public inState(State.Failed) {\n        require(amounts[msg.sender] > 0, \"Nothing was contributed\");\n\n        uint contributed = amounts[msg.sender];\n        amounts[msg.sender] = 0;\n\n        if (!payable(msg.sender).send(contributed)) {\n            amounts[msg.sender] = contributed;\n        }\n    }\n\n    function totalCollected() public view returns (uint) {\n        return address(this).balance;\n    }\n\n    function currentTime() private view returns (uint) {\n        return block.timestamp;\n    }\n\n    function beforeDeadline() private view returns (bool) {\n        return currentTime() < fundingDeadline;\n    }\n\n    function afterDeadline() private view returns (bool) {\n        return !beforeDeadline();\n    }\n}\n\n",
  "sourcePath": "/Users/justincrosbie/dev/web3/ethereum/truffle/crowd/contracts/Crowdfunding.sol",
  "compiler": {
    "name": "solc",
    "version": "0.8.14+commit.80d49f37.Emscripten.clang"
  },
  "schemaVersion": "3.4.16",
  "updatedAt": "2024-01-21T09:42:25.881Z",
  "networkType": "ethereum",
  "devdoc": {
    "kind": "dev",
    "methods": {
      "owner()": {
        "details": "Returns the address of the current owner."
      },
      "renounceOwnership()": {
        "details": "Leaves the contract without owner. It will not be possible to call `onlyOwner` functions. Can only be called by the current owner. NOTE: Renouncing ownership will leave the contract without an owner, thereby disabling any functionality that is only available to the owner."
      },
      "transferOwnership(address)": {
        "details": "Transfers ownership of the contract to a new account (`newOwner`). Can only be called by the current owner."
      }
    },
    "version": 1
  },
  "userdoc": {
    "kind": "user",
    "methods": {},
    "version": 1
  }
}